{
  "contractName": "DatareumCrowdsale",
  "abi": [
    {
      "constant": true,
      "inputs": [],
      "name": "PRE_ICO_MIN_CAP",
      "outputs": [
        {
          "name": "",
          "type": "uint256"
        }
      ],
      "payable": false,
      "stateMutability": "view",
      "type": "function"
    },
    {
      "constant": true,
      "inputs": [
        {
          "name": "_time",
          "type": "uint256"
        }
      ],
      "name": "getPhase",
      "outputs": [
        {
          "name": "",
          "type": "uint8"
        }
      ],
      "payable": false,
      "stateMutability": "pure",
      "type": "function"
    },
    {
      "constant": false,
      "inputs": [
        {
          "name": "myid",
          "type": "bytes32"
        },
        {
          "name": "result",
          "type": "string"
        }
      ],
      "name": "__callback",
      "outputs": [],
      "payable": false,
      "stateMutability": "nonpayable",
      "type": "function"
    },
    {
      "constant": true,
      "inputs": [],
      "name": "ICO_FINISH",
      "outputs": [
        {
          "name": "",
          "type": "uint256"
        }
      ],
      "payable": false,
      "stateMutability": "view",
      "type": "function"
    },
    {
      "constant": true,
      "inputs": [],
      "name": "ICO_MIN_CAP",
      "outputs": [
        {
          "name": "",
          "type": "uint256"
        }
      ],
      "payable": false,
      "stateMutability": "view",
      "type": "function"
    },
    {
      "constant": true,
      "inputs": [
        {
          "name": "",
          "type": "address"
        }
      ],
      "name": "whiteList",
      "outputs": [
        {
          "name": "",
          "type": "bool"
        }
      ],
      "payable": false,
      "stateMutability": "view",
      "type": "function"
    },
    {
      "constant": false,
      "inputs": [
        {
          "name": "",
          "type": "bytes32"
        },
        {
          "name": "result",
          "type": "string"
        },
        {
          "name": "",
          "type": "bytes"
        }
      ],
      "name": "__callback",
      "outputs": [],
      "payable": false,
      "stateMutability": "nonpayable",
      "type": "function"
    },
    {
      "constant": true,
      "inputs": [],
      "name": "updateFlag",
      "outputs": [
        {
          "name": "",
          "type": "bool"
        }
      ],
      "payable": false,
      "stateMutability": "view",
      "type": "function"
    },
    {
      "constant": true,
      "inputs": [],
      "name": "startingExchangePrice",
      "outputs": [
        {
          "name": "",
          "type": "uint256"
        }
      ],
      "payable": false,
      "stateMutability": "view",
      "type": "function"
    },
    {
      "constant": false,
      "inputs": [],
      "name": "refund",
      "outputs": [],
      "payable": false,
      "stateMutability": "nonpayable",
      "type": "function"
    },
    {
      "constant": true,
      "inputs": [],
      "name": "ICO_MIN_DEPOSIT",
      "outputs": [
        {
          "name": "",
          "type": "uint256"
        }
      ],
      "payable": false,
      "stateMutability": "view",
      "type": "function"
    },
    {
      "constant": false,
      "inputs": [
        {
          "name": "_addresses",
          "type": "address[]"
        }
      ],
      "name": "addToWhiteList",
      "outputs": [],
      "payable": false,
      "stateMutability": "nonpayable",
      "type": "function"
    },
    {
      "constant": false,
      "inputs": [],
      "name": "acceptOwnership",
      "outputs": [],
      "payable": false,
      "stateMutability": "nonpayable",
      "type": "function"
    },
    {
      "constant": true,
      "inputs": [],
      "name": "priceUpdateAt",
      "outputs": [
        {
          "name": "",
          "type": "uint256"
        }
      ],
      "payable": false,
      "stateMutability": "view",
      "type": "function"
    },
    {
      "constant": true,
      "inputs": [],
      "name": "tokenPrice",
      "outputs": [
        {
          "name": "",
          "type": "uint256"
        }
      ],
      "payable": false,
      "stateMutability": "view",
      "type": "function"
    },
    {
      "constant": false,
      "inputs": [],
      "name": "addEtherForOraclize",
      "outputs": [],
      "payable": true,
      "stateMutability": "payable",
      "type": "function"
    },
    {
      "constant": true,
      "inputs": [],
      "name": "owner",
      "outputs": [
        {
          "name": "",
          "type": "address"
        }
      ],
      "payable": false,
      "stateMutability": "view",
      "type": "function"
    },
    {
      "constant": false,
      "inputs": [
        {
          "name": "_time",
          "type": "uint256"
        }
      ],
      "name": "startOraclize",
      "outputs": [],
      "payable": false,
      "stateMutability": "nonpayable",
      "type": "function"
    },
    {
      "constant": true,
      "inputs": [],
      "name": "PRE_ICO_MAX_CAP",
      "outputs": [
        {
          "name": "",
          "type": "uint256"
        }
      ],
      "payable": false,
      "stateMutability": "view",
      "type": "function"
    },
    {
      "constant": false,
      "inputs": [],
      "name": "requestOraclizeBalance",
      "outputs": [],
      "payable": false,
      "stateMutability": "nonpayable",
      "type": "function"
    },
    {
      "constant": true,
      "inputs": [],
      "name": "ICO_MAX_DEPOSIT",
      "outputs": [
        {
          "name": "",
          "type": "uint256"
        }
      ],
      "payable": false,
      "stateMutability": "view",
      "type": "function"
    },
    {
      "constant": true,
      "inputs": [],
      "name": "getIcoBonus",
      "outputs": [
        {
          "name": "",
          "type": "uint256"
        }
      ],
      "payable": false,
      "stateMutability": "pure",
      "type": "function"
    },
    {
      "constant": true,
      "inputs": [],
      "name": "PRE_ICO_FINISH",
      "outputs": [
        {
          "name": "",
          "type": "uint256"
        }
      ],
      "payable": false,
      "stateMutability": "view",
      "type": "function"
    },
    {
      "constant": false,
      "inputs": [
        {
          "name": "_addresses",
          "type": "address[]"
        }
      ],
      "name": "removeFromWhiteList",
      "outputs": [],
      "payable": false,
      "stateMutability": "nonpayable",
      "type": "function"
    },
    {
      "constant": true,
      "inputs": [],
      "name": "findElevenPmUtc",
      "outputs": [
        {
          "name": "",
          "type": "uint256"
        }
      ],
      "payable": false,
      "stateMutability": "view",
      "type": "function"
    },
    {
      "constant": true,
      "inputs": [],
      "name": "getPreIcoBonus",
      "outputs": [
        {
          "name": "",
          "type": "uint256"
        }
      ],
      "payable": false,
      "stateMutability": "pure",
      "type": "function"
    },
    {
      "constant": true,
      "inputs": [],
      "name": "ethCollected",
      "outputs": [
        {
          "name": "",
          "type": "uint256"
        }
      ],
      "payable": false,
      "stateMutability": "view",
      "type": "function"
    },
    {
      "constant": false,
      "inputs": [],
      "name": "stopOraclize",
      "outputs": [],
      "payable": false,
      "stateMutability": "nonpayable",
      "type": "function"
    },
    {
      "constant": true,
      "inputs": [],
      "name": "oraclizeBalance",
      "outputs": [
        {
          "name": "",
          "type": "uint256"
        }
      ],
      "payable": false,
      "stateMutability": "view",
      "type": "function"
    },
    {
      "constant": true,
      "inputs": [],
      "name": "PRE_ICO_MAX_DEPOSIT",
      "outputs": [
        {
          "name": "",
          "type": "uint256"
        }
      ],
      "payable": false,
      "stateMutability": "view",
      "type": "function"
    },
    {
      "constant": true,
      "inputs": [],
      "name": "ICO_START",
      "outputs": [
        {
          "name": "",
          "type": "uint256"
        }
      ],
      "payable": false,
      "stateMutability": "view",
      "type": "function"
    },
    {
      "constant": true,
      "inputs": [],
      "name": "PRE_ICO_START",
      "outputs": [
        {
          "name": "",
          "type": "uint256"
        }
      ],
      "payable": false,
      "stateMutability": "view",
      "type": "function"
    },
    {
      "constant": true,
      "inputs": [],
      "name": "newOwner",
      "outputs": [
        {
          "name": "",
          "type": "address"
        }
      ],
      "payable": false,
      "stateMutability": "view",
      "type": "function"
    },
    {
      "constant": true,
      "inputs": [],
      "name": "PRE_ICO_MIN_DEPOSIT",
      "outputs": [
        {
          "name": "",
          "type": "uint256"
        }
      ],
      "payable": false,
      "stateMutability": "view",
      "type": "function"
    },
    {
      "constant": false,
      "inputs": [
        {
          "name": "_newOwner",
          "type": "address"
        }
      ],
      "name": "transferOwnership",
      "outputs": [],
      "payable": false,
      "stateMutability": "nonpayable",
      "type": "function"
    },
    {
      "constant": true,
      "inputs": [],
      "name": "token",
      "outputs": [
        {
          "name": "",
          "type": "address"
        }
      ],
      "payable": false,
      "stateMutability": "view",
      "type": "function"
    },
    {
      "inputs": [
        {
          "name": "_tokenAddress",
          "type": "address"
        }
      ],
      "payable": true,
      "stateMutability": "payable",
      "type": "constructor"
    },
    {
      "payable": true,
      "stateMutability": "payable",
      "type": "fallback"
    },
    {
      "anonymous": false,
      "inputs": [
        {
          "indexed": true,
          "name": "_address",
          "type": "address"
        },
        {
          "indexed": true,
          "name": "_EthValue",
          "type": "uint256"
        },
        {
          "indexed": true,
          "name": "_percent",
          "type": "uint256"
        },
        {
          "indexed": false,
          "name": "_tokenValue",
          "type": "uint256"
        }
      ],
      "name": "OnSuccessBuy",
      "type": "event"
    },
    {
      "anonymous": false,
      "inputs": [
        {
          "indexed": false,
          "name": "price",
          "type": "string"
        }
      ],
      "name": "newPriceTicker",
      "type": "event"
    }
  ],
  "bytecode": "0x60606040526012600755660423af04de76536009556200003c621e84806009546200039864010000000002620019e9179091906401000000009004565b600b5562000067624c4b406009546200039864010000000002620019e9179091906401000000009004565b600c556000600d556000601055600060125560405160208062003dc283398101604052808051906020019091905050336000806101000a81548173ffffffffffffffffffffffffffffffffffffffff021916908373ffffffffffffffffffffffffffffffffffffffff16021790555080600860006101000a81548173ffffffffffffffffffffffffffffffffffffffff021916908373ffffffffffffffffffffffffffffffffffffffff160217905550336000806101000a81548173ffffffffffffffffffffffffffffffffffffffff021916908373ffffffffffffffffffffffffffffffffffffffff160217905550600860009054906101000a900473ffffffffffffffffffffffffffffffffffffffff1673ffffffffffffffffffffffffffffffffffffffff16636596cff3306040518263ffffffff167c0100000000000000000000000000000000000000000000000000000000028152600401808273ffffffffffffffffffffffffffffffffffffffff1673ffffffffffffffffffffffffffffffffffffffff168152602001915050600060405180830381600087803b15156200021457600080fd5b6102c65a03f115156200022657600080fd5b505050620002496000620003e364010000000002620024cb176401000000009004565b50600260009054906101000a900473ffffffffffffffffffffffffffffffffffffffff1673ffffffffffffffffffffffffffffffffffffffff166338cc48316000604051602001526040518163ffffffff167c0100000000000000000000000000000000000000000000000000000000028152600401602060405180830381600087803b1515620002d957600080fd5b6102c65a03f11515620002eb57600080fd5b50505060405180519050600360006101000a81548173ffffffffffffffffffffffffffffffffffffffff021916908373ffffffffffffffffffffffffffffffffffffffff16021790555060646003600954028115156200034757fe5b04600a819055503460128190555062000391620003776200097b640100000000026200176b176401000000009004565b620009eb640100000000026200138e176401000000009004565b50620010c4565b6000806000841480620003ab5750600083145b15620003bb5760009150620003dc565b8284029050828482811515620003cd57fe5b04141515620003d857fe5b8091505b5092915050565b60008062000419731d3b2638a7cc9f2cb3d298a3da7a90b67e5506ed62000b4f64010000000002620024c0176401000000009004565b1115620004d357731d3b2638a7cc9f2cb3d298a3da7a90b67e5506ed600260006101000a81548173ffffffffffffffffffffffffffffffffffffffff021916908373ffffffffffffffffffffffffffffffffffffffff160217905550620004c96040805190810160405280600b81526020017f6574685f6d61696e6e657400000000000000000000000000000000000000000081525062000b5a6401000000000262002bef176401000000009004565b6001905062000976565b60006200050873c03a2615d5efaf5f49f60b7bb6583eaec212fdf162000b4f64010000000002620024c0176401000000009004565b1115620005c25773c03a2615d5efaf5f49f60b7bb6583eaec212fdf1600260006101000a81548173ffffffffffffffffffffffffffffffffffffffff021916908373ffffffffffffffffffffffffffffffffffffffff160217905550620005b86040805190810160405280600c81526020017f6574685f726f707374656e33000000000000000000000000000000000000000081525062000b5a6401000000000262002bef176401000000009004565b6001905062000976565b6000620005f773b7a07bcf2ba2f2703b24c0691b5278999c59ac7e62000b4f64010000000002620024c0176401000000009004565b1115620006b15773b7a07bcf2ba2f2703b24c0691b5278999c59ac7e600260006101000a81548173ffffffffffffffffffffffffffffffffffffffff021916908373ffffffffffffffffffffffffffffffffffffffff160217905550620006a76040805190810160405280600981526020017f6574685f6b6f76616e000000000000000000000000000000000000000000000081525062000b5a6401000000000262002bef176401000000009004565b6001905062000976565b6000620006e673146500cfd35b22e4a392fe0adc06de1a1368ed4862000b4f64010000000002620024c0176401000000009004565b1115620007a05773146500cfd35b22e4a392fe0adc06de1a1368ed48600260006101000a81548173ffffffffffffffffffffffffffffffffffffffff021916908373ffffffffffffffffffffffffffffffffffffffff160217905550620007966040805190810160405280600b81526020017f6574685f72696e6b65627900000000000000000000000000000000000000000081525062000b5a6401000000000262002bef176401000000009004565b6001905062000976565b6000620007d5736f485c8bf6fc43ea212e93bbf8ce046c7f1cb47562000b4f64010000000002620024c0176401000000009004565b11156200083b57736f485c8bf6fc43ea212e93bbf8ce046c7f1cb475600260006101000a81548173ffffffffffffffffffffffffffffffffffffffff021916908373ffffffffffffffffffffffffffffffffffffffff1602179055506001905062000976565b6000620008707320e12a1f859b3feae5fb2a0a32c18f5a65555bbf62000b4f64010000000002620024c0176401000000009004565b1115620008d6577320e12a1f859b3feae5fb2a0a32c18f5a65555bbf600260006101000a81548173ffffffffffffffffffffffffffffffffffffffff021916908373ffffffffffffffffffffffffffffffffffffffff1602179055506001905062000976565b60006200090b7351efaf4c8b3c9afbd5ab9f4bbc82784ab6ef8faa62000b4f64010000000002620024c0176401000000009004565b111562000971577351efaf4c8b3c9afbd5ab9f4bbc82784ab6ef8faa600260006101000a81548173ffffffffffffffffffffffffffffffffffffffff021916908373ffffffffffffffffffffffffffffffffffffffff1602179055506001905062000976565b600090505b919050565b6000806000635a4abd709150600090505b61012c811015620009e157620151808201915042821115620009d357620009cb428362000b766401000000000262001a2f179091906401000000009004565b9250620009e6565b80806001019150506200098c565b600092505b505090565b6000809054906101000a900473ffffffffffffffffffffffffffffffffffffffff1673ffffffffffffffffffffffffffffffffffffffff163373ffffffffffffffffffffffffffffffffffffffff1614151562000a4757600080fd5b6000811415151562000a5857600080fd5b6001601160006101000a81548160ff02191690831515021790555062000b4b816040805190810160405280600381526020017f55524c0000000000000000000000000000000000000000000000000000000000815250608060405190810160405280604c81526020017f6a736f6e2868747470733a2f2f6170692e6b72616b656e2e636f6d2f302f707581526020017f626c69632f5469636b65723f706169723d455448555344292e726573756c742e81526020017f584554485a5553442e632e30000000000000000000000000000000000000000081525062000b90640100000000026200207a176401000000009004565b5050565b6000813b9050919050565b806004908051906020019062000b7292919062001015565b5050565b600082821115151562000b8557fe5b818303905092915050565b6000806000600260009054906101000a900473ffffffffffffffffffffffffffffffffffffffff1673ffffffffffffffffffffffffffffffffffffffff16148062000c1b5750600062000c19600260009054906101000a900473ffffffffffffffffffffffffffffffffffffffff1662000b4f64010000000002620024c0176401000000009004565b145b1562000c435762000c416000620003e364010000000002620024cb176401000000009004565b505b600260009054906101000a900473ffffffffffffffffffffffffffffffffffffffff1673ffffffffffffffffffffffffffffffffffffffff166338cc48316000604051602001526040518163ffffffff167c0100000000000000000000000000000000000000000000000000000000028152600401602060405180830381600087803b151562000cd257600080fd5b6102c65a03f1151562000ce457600080fd5b50505060405180519050600360006101000a81548173ffffffffffffffffffffffffffffffffffffffff021916908373ffffffffffffffffffffffffffffffffffffffff160217905550600360009054906101000a900473ffffffffffffffffffffffffffffffffffffffff1673ffffffffffffffffffffffffffffffffffffffff1663524f3889856000604051602001526040518263ffffffff167c01000000000000000000000000000000000000000000000000000000000281526004018080602001828103825283818151815260200191508051906020019080838360005b8381101562000de357808201518184015260208101905062000dc6565b50505050905090810190601f16801562000e115780820380516001836020036101000a031916815260200191505b5092505050602060405180830381600087803b151562000e3057600080fd5b6102c65a03f1151562000e4257600080fd5b50505060405180519050905062030d403a02670de0b6b3a76400000181111562000e7357600060010291506200100d565b600360009054906101000a900473ffffffffffffffffffffffffffffffffffffffff1673ffffffffffffffffffffffffffffffffffffffff1663adf59f99828787876000604051602001526040518563ffffffff167c0100000000000000000000000000000000000000000000000000000000028152600401808481526020018060200180602001838103835285818151815260200191508051906020019080838360005b8381101562000f3557808201518184015260208101905062000f18565b50505050905090810190601f16801562000f635780820380516001836020036101000a031916815260200191505b50838103825284818151815260200191508051906020019080838360005b8381101562000f9e57808201518184015260208101905062000f81565b50505050905090810190601f16801562000fcc5780820380516001836020036101000a031916815260200191505b50955050505050506020604051808303818588803b151562000fed57600080fd5b6125ee5a03f1151562000fff57600080fd5b505050506040518051905091505b509392505050565b828054600181600116156101000203166002900490600052602060002090601f016020900481019282601f106200105857805160ff191683800117855562001089565b8280016001018555821562001089579182015b82811115620010885782518255916020019190600101906200106b565b5b5090506200109891906200109c565b5090565b620010c191905b80821115620010bd576000816000905550600101620010a3565b5090565b90565b612cee80620010d46000396000f3006060604052600436106101c2576000357c0100000000000000000000000000000000000000000000000000000000900463ffffffff168063042abdf81461023257806316ef376b1461025b57806327dc297e146102985780632ce0b4f61461030257806331a3b8731461032b578063372c12b11461035457806338bbfa50146103a55780633a7104d1146104525780633fb1fed41461047f578063590e1ae3146104a857806368347fdf146104bd578063740d73f3146104e657806379ba5097146105405780637ea15da1146105555780637ff9b5961461057e5780638d4ea1ba146105a75780638da5cb5b146105b15780638ece39cd14610606578063993d13bd146106295780639c977e4314610652578063a04f77d814610667578063a2c4136614610690578063a6024524146106b9578063b11560c5146106e2578063b69f900e1461073c578063b705377914610765578063bee2e1341461078e578063c2d560ab146107b7578063c4218d33146107cc578063ccf7ec8a146107f5578063d0ca12ba1461081e578063d4810b6114610847578063d4ee1d9014610870578063e59eee2e146108c5578063f2fde38b146108ee578063fc0c546a14610927575b600f60003373ffffffffffffffffffffffffffffffffffffffff1673ffffffffffffffffffffffffffffffffffffffff16815260200190815260200160002060009054906101000a900460ff16151561021a57600080fd5b61022533344261097c565b151561023057600080fd5b005b341561023d57600080fd5b610245610dff565b6040518082815260200191505060405180910390f35b341561026657600080fd5b61027c6004808035906020019091905050610e04565b604051808260ff1660ff16815260200191505060405180910390f35b34156102a357600080fd5b61030060048080356000191690602001909190803590602001908201803590602001908080601f01602080910402602001604051908101604052809392919081815260200183838082843782019150505050505091905050610e57565b005b341561030d57600080fd5b610315610e89565b6040518082815260200191505060405180910390f35b341561033657600080fd5b61033e610e91565b6040518082815260200191505060405180910390f35b341561035f57600080fd5b61038b600480803573ffffffffffffffffffffffffffffffffffffffff16906020019091905050610e97565b604051808215151515815260200191505060405180910390f35b34156103b057600080fd5b61045060048080356000191690602001909190803590602001908201803590602001908080601f0160208091040260200160405190810160405280939291908181526020018383808284378201915050505050509190803590602001908201803590602001908080601f01602080910402602001604051908101604052809392919081815260200183838082843782019150505050505091905050610eb7565b005b341561045d57600080fd5b610465611040565b604051808215151515815260200191505060405180910390f35b341561048a57600080fd5b610492611053565b6040518082815260200191505060405180910390f35b34156104b357600080fd5b6104bb611059565b005b34156104c857600080fd5b6104d061118e565b6040518082815260200191505060405180910390f35b34156104f157600080fd5b61053e60048080359060200190820180359060200190808060200260200160405190810160405280939291908181526020018383602002808284378201915050505050509190505061119a565b005b341561054b57600080fd5b610553611285565b005b341561056057600080fd5b610568611340565b6040518082815260200191505060405180910390f35b341561058957600080fd5b610591611346565b6040518082815260200191505060405180910390f35b6105af61134c565b005b34156105bc57600080fd5b6105c4611369565b604051808273ffffffffffffffffffffffffffffffffffffffff1673ffffffffffffffffffffffffffffffffffffffff16815260200191505060405180910390f35b341561061157600080fd5b610627600480803590602001909190505061138e565b005b341561063457600080fd5b61063c6114da565b6040518082815260200191505060405180910390f35b341561065d57600080fd5b6106656114e0565b005b341561067257600080fd5b61067a611663565b6040518082815260200191505060405180910390f35b341561069b57600080fd5b6106a3611670565b6040518082815260200191505060405180910390f35b34156106c457600080fd5b6106cc611678565b6040518082815260200191505060405180910390f35b34156106ed57600080fd5b61073a600480803590602001908201803590602001908080602002602001604051908101604052809392919081815260200183836020028082843782019150505050505091905050611680565b005b341561074757600080fd5b61074f61176b565b6040518082815260200191505060405180910390f35b341561077057600080fd5b6107786117c7565b6040518082815260200191505060405180910390f35b341561079957600080fd5b6107a16117d0565b6040518082815260200191505060405180910390f35b34156107c257600080fd5b6107ca6117d6565b005b34156107d757600080fd5b6107df61184e565b6040518082815260200191505060405180910390f35b341561080057600080fd5b610808611854565b6040518082815260200191505060405180910390f35b341561082957600080fd5b610831611861565b6040518082815260200191505060405180910390f35b341561085257600080fd5b61085a611869565b6040518082815260200191505060405180910390f35b341561087b57600080fd5b61088361186e565b604051808273ffffffffffffffffffffffffffffffffffffffff1673ffffffffffffffffffffffffffffffffffffffff16815260200191505060405180910390f35b34156108d057600080fd5b6108d8611894565b6040518082815260200191505060405180910390f35b34156108f957600080fd5b610925600480803573ffffffffffffffffffffffffffffffffffffffff16906020019091905050611899565b005b341561093257600080fd5b61093a611974565b604051808273ffffffffffffffffffffffffffffffffffffffff1673ffffffffffffffffffffffffffffffffffffffff16815260200191505060405180910390f35b60008060008061098b85610e04565b925060008360ff1611151561099f57600080fd5b600091506109b886600d5461199a90919063ffffffff16565b600d81905550600a546109e96109da600754600a6119b890919063ffffffff16565b886119e990919063ffffffff16565b8115156109f257fe5b04905060018360ff161415610b255760008610158015610a1b575068056bc75e2d631000008611155b1515610a2657600080fd5b610a2e6117c7565b9150610a616064610a4884846119e990919063ffffffff16565b811515610a5157fe5b048261199a90919063ffffffff16565b9050600b54610a7b87600d5461199a90919063ffffffff16565b11151515610a8857600080fd5b6000600d541115610b20576000809054906101000a900473ffffffffffffffffffffffffffffffffffffffff1673ffffffffffffffffffffffffffffffffffffffff166108fc610afa6012543073ffffffffffffffffffffffffffffffffffffffff1631611a2f90919063ffffffff16565b9081150290604051600060405180830381858888f193505050501515610b1f57600080fd5b5b610cc9565b60028360ff161415610cc85767016345785d8a00008610158015610b51575068056bc75e2d6310000086105b1515610b5c57600080fd5b610bae86600e60008a73ffffffffffffffffffffffffffffffffffffffff1673ffffffffffffffffffffffffffffffffffffffff1681526020019081526020016000205461199a90919063ffffffff16565b600e60008973ffffffffffffffffffffffffffffffffffffffff1673ffffffffffffffffffffffffffffffffffffffff16815260200190815260200160002081905550610bf9611670565b9150610c2c6064610c1384846119e990919063ffffffff16565b811515610c1c57fe5b048261199a90919063ffffffff16565b9050600c54600d541115610cc7576000809054906101000a900473ffffffffffffffffffffffffffffffffffffffff1673ffffffffffffffffffffffffffffffffffffffff166108fc610ca16012543073ffffffffffffffffffffffffffffffffffffffff1631611a2f90919063ffffffff16565b9081150290604051600060405180830381858888f193505050501515610cc657600080fd5b5b5b5b600860009054906101000a900473ffffffffffffffffffffffffffffffffffffffff1673ffffffffffffffffffffffffffffffffffffffff16639c1f020a88836040518363ffffffff167c0100000000000000000000000000000000000000000000000000000000028152600401808373ffffffffffffffffffffffffffffffffffffffff1673ffffffffffffffffffffffffffffffffffffffff16815260200182815260200192505050600060405180830381600087803b1515610d8d57600080fd5b6102c65a03f11515610d9e57600080fd5b50505081868873ffffffffffffffffffffffffffffffffffffffff167f10df6c7a5e94394710503f2b7c23b14192861c7f08b43328ee7017127f49468f846040518082815260200191505060405180910390a4600193505050509392505050565b600081565b600081600011158015610e1a5750635b1f0cc482105b15610e285760019050610e52565b81635b36c80011158015610e3f5750635b60f7c482105b15610e4d5760029050610e52565b600090505b919050565b610e8582826000604051805910610e6b5750595b9080825280601f01601f1916602001820160405250610eb7565b5050565b635b60f7c481565b600c5481565b600f6020528060005260406000206000915054906101000a900460ff1681565b6000610ec1611a48565b73ffffffffffffffffffffffffffffffffffffffff163373ffffffffffffffffffffffffffffffffffffffff16141515610efa57600080fd5b610f05836005611c62565b69152d02c7e14af6800000811515610f1957fe5b049050600081111515610f2b57600080fd5b606460038202811515610f3a57fe5b04600a81905550610f57621e8480826119e990919063ffffffff16565b600b81905550610f736207a120826119e990919063ffffffff16565b600c81905550426010819055507f6497bd3a7d603cd3fc8da26f0b500e8b758f95f2c0e94789a463293e6dbce4fe836040518080602001828103825283818151815260200191508051906020019080838360005b83811015610fe2578082015181840152602081019050610fc7565b50505050905090810190601f16801561100f5780820380516001836020036101000a031916815260200191505b509250505060405180910390a1601160009054906101000a900460ff161561103a57611039611f5c565b5b50505050565b601160009054906101000a900460ff1681565b60095481565b635b60f7c44211801561106f5750600c54600d54105b151561107a57600080fd5b6000600e60003373ffffffffffffffffffffffffffffffffffffffff1673ffffffffffffffffffffffffffffffffffffffff168152602001908152602001600020541115156110c857600080fd5b3373ffffffffffffffffffffffffffffffffffffffff166108fc600e60003373ffffffffffffffffffffffffffffffffffffffff1673ffffffffffffffffffffffffffffffffffffffff168152602001908152602001600020549081150290604051600060405180830381858888f19350505050151561114757600080fd5b6000600e60003373ffffffffffffffffffffffffffffffffffffffff1673ffffffffffffffffffffffffffffffffffffffff16815260200190815260200160002081905550565b67016345785d8a000081565b60008060009054906101000a900473ffffffffffffffffffffffffffffffffffffffff1673ffffffffffffffffffffffffffffffffffffffff163373ffffffffffffffffffffffffffffffffffffffff161415156111f757600080fd5b600090505b8151811015611281576001600f6000848481518110151561121957fe5b9060200190602002015173ffffffffffffffffffffffffffffffffffffffff1673ffffffffffffffffffffffffffffffffffffffff16815260200190815260200160002060006101000a81548160ff02191690831515021790555080806001019150506111fc565b5050565b600160009054906101000a900473ffffffffffffffffffffffffffffffffffffffff1673ffffffffffffffffffffffffffffffffffffffff163373ffffffffffffffffffffffffffffffffffffffff16141561133e57600160009054906101000a900473ffffffffffffffffffffffffffffffffffffffff166000806101000a81548173ffffffffffffffffffffffffffffffffffffffff021916908373ffffffffffffffffffffffffffffffffffffffff1602179055505b565b60105481565b600a5481565b6113613460125461199a90919063ffffffff16565b601281905550565b6000809054906101000a900473ffffffffffffffffffffffffffffffffffffffff1681565b6000809054906101000a900473ffffffffffffffffffffffffffffffffffffffff1673ffffffffffffffffffffffffffffffffffffffff163373ffffffffffffffffffffffffffffffffffffffff161415156113e957600080fd5b600081141515156113f957600080fd5b6001601160006101000a81548160ff0219169083151502179055506114d6816040805190810160405280600381526020017f55524c0000000000000000000000000000000000000000000000000000000000815250608060405190810160405280604c81526020017f6a736f6e2868747470733a2f2f6170692e6b72616b656e2e636f6d2f302f707581526020017f626c69632f5469636b65723f706169723d455448555344292e726573756c742e81526020017f584554485a5553442e632e30000000000000000000000000000000000000000081525061207a565b5050565b600b5481565b6000809054906101000a900473ffffffffffffffffffffffffffffffffffffffff1673ffffffffffffffffffffffffffffffffffffffff163373ffffffffffffffffffffffffffffffffffffffff1614151561153b57600080fd5b6000601160006101000a81548160ff0219169083151502179055506012543073ffffffffffffffffffffffffffffffffffffffff16311015156115e0576000809054906101000a900473ffffffffffffffffffffffffffffffffffffffff1673ffffffffffffffffffffffffffffffffffffffff166108fc6012549081150290604051600060405180830381858888f1935050505015156115db57600080fd5b611659565b6000809054906101000a900473ffffffffffffffffffffffffffffffffffffffff1673ffffffffffffffffffffffffffffffffffffffff166108fc3073ffffffffffffffffffffffffffffffffffffffff16319081150290604051600060405180830381858888f19350505050151561165857600080fd5b5b6000601281905550565b68056bc75e2d6310000081565b600080905090565b635b1f0cc481565b60008060009054906101000a900473ffffffffffffffffffffffffffffffffffffffff1673ffffffffffffffffffffffffffffffffffffffff163373ffffffffffffffffffffffffffffffffffffffff161415156116dd57600080fd5b600090505b8151811015611767576000600f600084848151811015156116ff57fe5b9060200190602002015173ffffffffffffffffffffffffffffffffffffffff1673ffffffffffffffffffffffffffffffffffffffff16815260200190815260200160002060006101000a81548160ff02191690831515021790555080806001019150506116e2565b5050565b6000806000635a4abd709150600090505b61012c8110156117bd576201518082019150428211156117b0576117a94283611a2f90919063ffffffff16565b92506117c2565b808060010191505061177c565b600092505b505090565b60006014905090565b600d5481565b6000809054906101000a900473ffffffffffffffffffffffffffffffffffffffff1673ffffffffffffffffffffffffffffffffffffffff163373ffffffffffffffffffffffffffffffffffffffff1614151561183157600080fd5b6000601160006101000a81548160ff021916908315150217905550565b60125481565b68056bc75e2d6310000081565b635b36c80081565b600081565b600160009054906101000a900473ffffffffffffffffffffffffffffffffffffffff1681565b600081565b6000809054906101000a900473ffffffffffffffffffffffffffffffffffffffff1673ffffffffffffffffffffffffffffffffffffffff163373ffffffffffffffffffffffffffffffffffffffff161415156118f457600080fd5b600073ffffffffffffffffffffffffffffffffffffffff168173ffffffffffffffffffffffffffffffffffffffff161415151561193057600080fd5b80600160006101000a81548173ffffffffffffffffffffffffffffffffffffffff021916908373ffffffffffffffffffffffffffffffffffffffff16021790555050565b600860009054906101000a900473ffffffffffffffffffffffffffffffffffffffff1681565b60008082840190508381101515156119ae57fe5b8091505092915050565b60008060008314156119cd57600191506119e2565b82840a90508381101515156119de57fe5b8091505b5092915050565b60008060008414806119fb5750600083145b15611a095760009150611a28565b8284029050828482811515611a1a57fe5b04141515611a2457fe5b8091505b5092915050565b6000828211151515611a3d57fe5b818303905092915050565b600080600260009054906101000a900473ffffffffffffffffffffffffffffffffffffffff1673ffffffffffffffffffffffffffffffffffffffff161480611aba57506000611ab8600260009054906101000a900473ffffffffffffffffffffffffffffffffffffffff166124c0565b145b15611acb57611ac960006124cb565b505b600260009054906101000a900473ffffffffffffffffffffffffffffffffffffffff1673ffffffffffffffffffffffffffffffffffffffff166338cc48316000604051602001526040518163ffffffff167c0100000000000000000000000000000000000000000000000000000000028152600401602060405180830381600087803b1515611b5957600080fd5b6102c65a03f11515611b6a57600080fd5b50505060405180519050600360006101000a81548173ffffffffffffffffffffffffffffffffffffffff021916908373ffffffffffffffffffffffffffffffffffffffff160217905550600360009054906101000a900473ffffffffffffffffffffffffffffffffffffffff1673ffffffffffffffffffffffffffffffffffffffff1663c281d19e6000604051602001526040518163ffffffff167c0100000000000000000000000000000000000000000000000000000000028152600401602060405180830381600087803b1515611c4257600080fd5b6102c65a03f11515611c5357600080fd5b50505060405180519050905090565b6000611c6c612c09565b60008060008693506000925060009150600090505b8351811015611f3d5760307f0100000000000000000000000000000000000000000000000000000000000000028482815181101515611cbc57fe5b9060200101517f010000000000000000000000000000000000000000000000000000000000000090047f0100000000000000000000000000000000000000000000000000000000000000027effffffffffffffffffffffffffffffffffffffffffffffffffffffffffffff191610158015611dd4575060397f0100000000000000000000000000000000000000000000000000000000000000028482815181101515611d6457fe5b9060200101517f010000000000000000000000000000000000000000000000000000000000000090047f0100000000000000000000000000000000000000000000000000000000000000027effffffffffffffffffffffffffffffffffffffffffffffffffffffffffffff191611155b15611e85578115611df7576000861415611ded57611f3d565b8580600190039650505b600a8302925060308482815181101515611e0d57fe5b9060200101517f010000000000000000000000000000000000000000000000000000000000000090047f0100000000000000000000000000000000000000000000000000000000000000027f010000000000000000000000000000000000000000000000000000000000000090040383019250611f30565b602e7f0100000000000000000000000000000000000000000000000000000000000000028482815181101515611eb757fe5b9060200101517f010000000000000000000000000000000000000000000000000000000000000090047f0100000000000000000000000000000000000000000000000000000000000000027effffffffffffffffffffffffffffffffffffffffffffffffffffffffffffff19161415611f2f57600191505b5b8080600101915050611c81565b6000861115611f4f5785600a0a830292505b8294505050505092915050565b61201f603c6040805190810160405280600381526020017f55524c0000000000000000000000000000000000000000000000000000000000815250608060405190810160405280604c81526020017f6a736f6e2868747470733a2f2f6170692e6b72616b656e2e636f6d2f302f707581526020017f626c69632f5469636b65723f706169723d455448555344292e726573756c742e81526020017f584554485a5553442e632e30000000000000000000000000000000000000000081525061207a565b506120726120616040805190810160405280600381526020017f55524c0000000000000000000000000000000000000000000000000000000000815250612963565b601254611a2f90919063ffffffff16565b601281905550565b6000806000600260009054906101000a900473ffffffffffffffffffffffffffffffffffffffff1673ffffffffffffffffffffffffffffffffffffffff1614806120ee575060006120ec600260009054906101000a900473ffffffffffffffffffffffffffffffffffffffff166124c0565b145b156120ff576120fd60006124cb565b505b600260009054906101000a900473ffffffffffffffffffffffffffffffffffffffff1673ffffffffffffffffffffffffffffffffffffffff166338cc48316000604051602001526040518163ffffffff167c0100000000000000000000000000000000000000000000000000000000028152600401602060405180830381600087803b151561218d57600080fd5b6102c65a03f1151561219e57600080fd5b50505060405180519050600360006101000a81548173ffffffffffffffffffffffffffffffffffffffff021916908373ffffffffffffffffffffffffffffffffffffffff160217905550600360009054906101000a900473ffffffffffffffffffffffffffffffffffffffff1673ffffffffffffffffffffffffffffffffffffffff1663524f3889856000604051602001526040518263ffffffff167c01000000000000000000000000000000000000000000000000000000000281526004018080602001828103825283818151815260200191508051906020019080838360005b8381101561229b578082015181840152602081019050612280565b50505050905090810190601f1680156122c85780820380516001836020036101000a031916815260200191505b5092505050602060405180830381600087803b15156122e657600080fd5b6102c65a03f115156122f757600080fd5b50505060405180519050905062030d403a02670de0b6b3a76400000181111561232657600060010291506124b8565b600360009054906101000a900473ffffffffffffffffffffffffffffffffffffffff1673ffffffffffffffffffffffffffffffffffffffff1663adf59f99828787876000604051602001526040518563ffffffff167c0100000000000000000000000000000000000000000000000000000000028152600401808481526020018060200180602001838103835285818151815260200191508051906020019080838360005b838110156123e65780820151818401526020810190506123cb565b50505050905090810190601f1680156124135780820380516001836020036101000a031916815260200191505b50838103825284818151815260200191508051906020019080838360005b8381101561244c578082015181840152602081019050612431565b50505050905090810190601f1680156124795780820380516001836020036101000a031916815260200191505b50955050505050506020604051808303818588803b151561249957600080fd5b6125ee5a03f115156124aa57600080fd5b505050506040518051905091505b509392505050565b6000813b9050919050565b6000806124eb731d3b2638a7cc9f2cb3d298a3da7a90b67e5506ed6124c0565b111561258d57731d3b2638a7cc9f2cb3d298a3da7a90b67e5506ed600260006101000a81548173ffffffffffffffffffffffffffffffffffffffff021916908373ffffffffffffffffffffffffffffffffffffffff1602179055506125846040805190810160405280600b81526020017f6574685f6d61696e6e6574000000000000000000000000000000000000000000815250612bef565b6001905061295e565b60006125ac73c03a2615d5efaf5f49f60b7bb6583eaec212fdf16124c0565b111561264e5773c03a2615d5efaf5f49f60b7bb6583eaec212fdf1600260006101000a81548173ffffffffffffffffffffffffffffffffffffffff021916908373ffffffffffffffffffffffffffffffffffffffff1602179055506126456040805190810160405280600c81526020017f6574685f726f707374656e330000000000000000000000000000000000000000815250612bef565b6001905061295e565b600061266d73b7a07bcf2ba2f2703b24c0691b5278999c59ac7e6124c0565b111561270f5773b7a07bcf2ba2f2703b24c0691b5278999c59ac7e600260006101000a81548173ffffffffffffffffffffffffffffffffffffffff021916908373ffffffffffffffffffffffffffffffffffffffff1602179055506127066040805190810160405280600981526020017f6574685f6b6f76616e0000000000000000000000000000000000000000000000815250612bef565b6001905061295e565b600061272e73146500cfd35b22e4a392fe0adc06de1a1368ed486124c0565b11156127d05773146500cfd35b22e4a392fe0adc06de1a1368ed48600260006101000a81548173ffffffffffffffffffffffffffffffffffffffff021916908373ffffffffffffffffffffffffffffffffffffffff1602179055506127c76040805190810160405280600b81526020017f6574685f72696e6b656279000000000000000000000000000000000000000000815250612bef565b6001905061295e565b60006127ef736f485c8bf6fc43ea212e93bbf8ce046c7f1cb4756124c0565b111561285357736f485c8bf6fc43ea212e93bbf8ce046c7f1cb475600260006101000a81548173ffffffffffffffffffffffffffffffffffffffff021916908373ffffffffffffffffffffffffffffffffffffffff1602179055506001905061295e565b60006128727320e12a1f859b3feae5fb2a0a32c18f5a65555bbf6124c0565b11156128d6577320e12a1f859b3feae5fb2a0a32c18f5a65555bbf600260006101000a81548173ffffffffffffffffffffffffffffffffffffffff021916908373ffffffffffffffffffffffffffffffffffffffff1602179055506001905061295e565b60006128f57351efaf4c8b3c9afbd5ab9f4bbc82784ab6ef8faa6124c0565b1115612959577351efaf4c8b3c9afbd5ab9f4bbc82784ab6ef8faa600260006101000a81548173ffffffffffffffffffffffffffffffffffffffff021916908373ffffffffffffffffffffffffffffffffffffffff1602179055506001905061295e565b600090505b919050565b600080600260009054906101000a900473ffffffffffffffffffffffffffffffffffffffff1673ffffffffffffffffffffffffffffffffffffffff1614806129d5575060006129d3600260009054906101000a900473ffffffffffffffffffffffffffffffffffffffff166124c0565b145b156129e6576129e460006124cb565b505b600260009054906101000a900473ffffffffffffffffffffffffffffffffffffffff1673ffffffffffffffffffffffffffffffffffffffff166338cc48316000604051602001526040518163ffffffff167c0100000000000000000000000000000000000000000000000000000000028152600401602060405180830381600087803b1515612a7457600080fd5b6102c65a03f11515612a8557600080fd5b50505060405180519050600360006101000a81548173ffffffffffffffffffffffffffffffffffffffff021916908373ffffffffffffffffffffffffffffffffffffffff160217905550600360009054906101000a900473ffffffffffffffffffffffffffffffffffffffff1673ffffffffffffffffffffffffffffffffffffffff1663524f3889836000604051602001526040518263ffffffff167c01000000000000000000000000000000000000000000000000000000000281526004018080602001828103825283818151815260200191508051906020019080838360005b83811015612b82578082015181840152602081019050612b67565b50505050905090810190601f168015612baf5780820380516001836020036101000a031916815260200191505b5092505050602060405180830381600087803b1515612bcd57600080fd5b6102c65a03f11515612bde57600080fd5b505050604051805190509050919050565b8060049080519060200190612c05929190612c1d565b5050565b602060405190810160405280600081525090565b828054600181600116156101000203166002900490600052602060002090601f016020900481019282601f10612c5e57805160ff1916838001178555612c8c565b82800160010185558215612c8c579182015b82811115612c8b578251825591602001919060010190612c70565b5b509050612c999190612c9d565b5090565b612cbf91905b80821115612cbb576000816000905550600101612ca3565b5090565b905600a165627a7a723058204208680d076bec42c41696e88b5fdae961b40d715e0c7009ee6097c0bccb980e0029",
  "source": "import \"./Oraclize.sol\";\nimport \"./Ownable.sol\";\nimport \"./SafeMath.sol\";\n\n//Abstract Token contract\ncontract DatareumToken{\n  function setCrowdsaleContract (address) public;\n  function sendCrowdsaleTokens(address, uint256)  public ;\n  function setIcoFinishedTrue () public;\n\n}\n\n//Crowdsale contract\ncontract DatareumCrowdsale is Ownable, usingOraclize{\n\n  using SafeMath for uint;\n\n  uint decimals = 18;\n\n  // Token contract address\n  DatareumToken public token;\n\n  uint public startingExchangePrice = 1165134514779731;\n  uint public tokenPrice; //0.03USD\n\n  // Constructor\n  function DatareumCrowdsale(address _tokenAddress) public payable{\n    token = DatareumToken(_tokenAddress);\n    owner = msg.sender;\n\n    token.setCrowdsaleContract(this);\n    \n    oraclize_setNetwork(networkID_auto);\n    oraclize = OraclizeI(OAR.getAddress());\n    \n    tokenPrice = startingExchangePrice*3/100;\n\n    oraclizeBalance = msg.value;\n\n    startOraclize(findElevenPmUtc());\n  }\n\n\n  function getPhase(uint _time) public pure returns(uint8) {\n    if (PRE_ICO_START <= _time && _time < PRE_ICO_FINISH){\n      return 1;\n    }\n    if (ICO_START <= _time && _time < ICO_FINISH){\n      return 2;\n    }\n    return 0;\n  }\n\n  function getPreIcoBonus() public pure returns(uint) {\n    return 20;  \n  }\n\n  function getIcoBonus () public pure returns(uint) {\n    return 0;\n  }\n  \n\n  //PRE ICO CONSTANTS\n  uint public constant PRE_ICO_MIN_DEPOSIT = 0 ether; //5 ether\n  uint public constant PRE_ICO_MAX_DEPOSIT = 100 ether;\n\n  uint public constant PRE_ICO_MIN_CAP = 0;\n  // uint public constant PRE_ICO_MAX_CAP = 2000000 ether;\n  uint public PRE_ICO_MAX_CAP = startingExchangePrice.mul((uint)(2000000)); //2 000 000 USD\n\n  uint public constant PRE_ICO_START = 0; //1527768000\n  uint public constant PRE_ICO_FINISH = 1528761540;\n  //END PRE ICO CONSTANTS\n\n  //ICO CONSTANTS\n  uint public constant ICO_MIN_DEPOSIT = 0.1 ether;\n  uint public constant ICO_MAX_DEPOSIT = 100 ether;\n\n  uint public ICO_MIN_CAP = startingExchangePrice.mul((uint)(5000000)); // 500 000 USD\n  // uint public constant ICO_MAX_CAP = 2000000 ether;\n\n  uint public constant ICO_START = 1530316800;\n  uint public constant ICO_FINISH = 1533081540;\n  //END ICO CONSTANTS\n\n  uint public ethCollected = 0;\n\n  mapping (address => uint) contributorEthCollected;\n  \n\n  mapping (address => bool) public whiteList;\n  \n  function addToWhiteList(address[] _addresses) public onlyOwner {\n    for (uint i = 0; i < _addresses.length; i++){\n      whiteList[_addresses[i]] = true;\n    }\n  }\n\n  function removeFromWhiteList (address[] _addresses) public onlyOwner {\n    for (uint i = 0; i < _addresses.length; i++){\n      whiteList[_addresses[i]] = false;\n    }\n  }\n\n  event OnSuccessBuy (address indexed _address, uint indexed _EthValue, uint indexed _percent, uint _tokenValue);\n\n  function () public payable {\n    require (whiteList[msg.sender]);\n    require (buy(msg.sender, msg.value, now));\n\n  }\n\n  function buy (address _address, uint _value, uint _time) internal returns(bool)  {\n    uint8 currentPhase = getPhase(_time);\n    require (currentPhase > 0);\n\n    uint bonusPercent = 0;\n\n    ethCollected = ethCollected.add(_value);\n\n    uint tokensToSend = (_value.mul((uint)(10).pow(decimals))/tokenPrice);\n\n    if (currentPhase == 1){\n      require (_value >= PRE_ICO_MIN_DEPOSIT && _value <= PRE_ICO_MAX_DEPOSIT);\n\n      bonusPercent = getPreIcoBonus();\n\n      tokensToSend = tokensToSend.add(tokensToSend.mul(bonusPercent)/100);\n\n      require (ethCollected.add(_value) <= PRE_ICO_MAX_CAP);\n\n      if (ethCollected > PRE_ICO_MIN_CAP){\n        owner.transfer(this.balance.sub(oraclizeBalance));\n      }\n\n    }else if(currentPhase == 2){\n      require (_value >= ICO_MIN_DEPOSIT && _value < ICO_MAX_DEPOSIT);\n\n      contributorEthCollected[_address] = contributorEthCollected[_address].add(_value);\n\n      bonusPercent = getIcoBonus();\n\n      tokensToSend = tokensToSend.add(tokensToSend.mul(bonusPercent)/100);\n\n      if (ethCollected > ICO_MIN_CAP){\n        owner.transfer(this.balance.sub(oraclizeBalance));\n      }\n    }\n\n    token.sendCrowdsaleTokens(_address,tokensToSend);\n\n    OnSuccessBuy(_address, _value, bonusPercent, tokensToSend);\n\n    return true;\n  }\n  \n  uint public priceUpdateAt = 0;\n  \n  event newPriceTicker(string price);\n  \n  function __callback(bytes32, string result, bytes) public {\n    require(msg.sender == oraclize_cbAddress());\n\n    uint256 price = 10 ** 23 / parseInt(result, 5);\n\n    require(price > 0);\n    // currentExchangePrice = price;\n    tokenPrice = price*3/100;\n    \n    PRE_ICO_MAX_CAP = price.mul((uint)(2000000)); //2 000 000 USD\n    ICO_MIN_CAP = price.mul((uint)(500000)); //500 000 USD\n\n\n    priceUpdateAt = block.timestamp;\n        \n    newPriceTicker(result);\n    \n    if(updateFlag){\n      update();\n    }\n  }\n  \n  bool public updateFlag;\n  \n  function update() internal {\n    oraclize_query(60,\"URL\", \"json(https://api.kraken.com/0/public/Ticker?pair=ETHUSD).result.XETHZUSD.c.0\");\n    //86400 - 1 day\n  \n    oraclizeBalance = oraclizeBalance.sub(oraclize_getPrice(\"URL\")); //request to oraclize\n  }\n  \n\n  uint public oraclizeBalance = 0;\n\n  function addEtherForOraclize () public payable {\n    oraclizeBalance = oraclizeBalance.add(msg.value);\n  }\n\n  function requestOraclizeBalance () public onlyOwner {\n    updateFlag = false;\n    if (this.balance >= oraclizeBalance){\n      owner.transfer(oraclizeBalance);\n    }else{\n      owner.transfer(this.balance);\n    }\n    oraclizeBalance = 0;\n  }\n  \n  function stopOraclize () public onlyOwner {\n    updateFlag = false;\n  }\n\n  function findElevenPmUtc () public view returns (uint) {\n\n    uint eleven = 1514847600; // Put the erliest 11pm timestamp\n\n    for (uint i = 0; i < 300; i++){\n      eleven = eleven + 1 days;\n      if(eleven > now){\n        return eleven.sub(now);\n      }\n    }\n    return 0;\n  }\n\n  function startOraclize (uint _time) public onlyOwner {\n    require (_time != 0);\n    updateFlag = true;\n    oraclize_query(_time,\"URL\", \"json(https://api.kraken.com/0/public/Ticker?pair=ETHUSD).result.XETHZUSD.c.0\");\n  }\n\n  function refund () public {\n    require (now > ICO_FINISH && ethCollected < ICO_MIN_CAP);\n    require (contributorEthCollected[msg.sender] > 0);\n\n    msg.sender.transfer(contributorEthCollected[msg.sender]);\n    contributorEthCollected[msg.sender] = 0;\n  }\n  \n}",
  "sourcePath": "/home/romuch/Desktop/DatareumTruffle/contracts/DatareumCrowdsale.sol",
  "compiler": {
    "name": "solc",
    "version": "0.4.19+commit.c4cbbb05.Emscripten.clang"
  },
  "schemaVersion": "1.0.1",
  "updatedAt": "2018-02-28T12:53:37.258Z"
}